{
  "_format": "hh-sol-artifact-1",
  "contractName": "NFT",
  "sourceName": "contracts/NFT.sol",
  "abi": [
    {
      "inputs": [],
      "stateMutability": "nonpayable",
      "type": "constructor"
    },
    {
      "anonymous": false,
      "inputs": [
        {
          "indexed": true,
          "internalType": "address",
          "name": "owner",
          "type": "address"
        },
        {
          "indexed": true,
          "internalType": "address",
          "name": "approved",
          "type": "address"
        },
        {
          "indexed": true,
          "internalType": "uint256",
          "name": "tokenId",
          "type": "uint256"
        }
      ],
      "name": "Approval",
      "type": "event"
    },
    {
      "anonymous": false,
      "inputs": [
        {
          "indexed": true,
          "internalType": "address",
          "name": "owner",
          "type": "address"
        },
        {
          "indexed": true,
          "internalType": "address",
          "name": "operator",
          "type": "address"
        },
        {
          "indexed": false,
          "internalType": "bool",
          "name": "approved",
          "type": "bool"
        }
      ],
      "name": "ApprovalForAll",
      "type": "event"
    },
    {
      "anonymous": false,
      "inputs": [
        {
          "indexed": true,
          "internalType": "address",
          "name": "from",
          "type": "address"
        },
        {
          "indexed": true,
          "internalType": "address",
          "name": "to",
          "type": "address"
        },
        {
          "indexed": true,
          "internalType": "uint256",
          "name": "tokenId",
          "type": "uint256"
        }
      ],
      "name": "Transfer",
      "type": "event"
    },
    {
      "inputs": [],
      "name": "MINT_PRICE",
      "outputs": [
        {
          "internalType": "uint256",
          "name": "",
          "type": "uint256"
        }
      ],
      "stateMutability": "view",
      "type": "function"
    },
    {
      "inputs": [],
      "name": "TOTAL_SUPPLY",
      "outputs": [
        {
          "internalType": "uint256",
          "name": "",
          "type": "uint256"
        }
      ],
      "stateMutability": "view",
      "type": "function"
    },
    {
      "inputs": [
        {
          "internalType": "address",
          "name": "to",
          "type": "address"
        },
        {
          "internalType": "uint256",
          "name": "tokenId",
          "type": "uint256"
        }
      ],
      "name": "approve",
      "outputs": [],
      "stateMutability": "nonpayable",
      "type": "function"
    },
    {
      "inputs": [
        {
          "internalType": "address",
          "name": "owner",
          "type": "address"
        }
      ],
      "name": "balanceOf",
      "outputs": [
        {
          "internalType": "uint256",
          "name": "",
          "type": "uint256"
        }
      ],
      "stateMutability": "view",
      "type": "function"
    },
    {
      "inputs": [],
      "name": "baseTokenURI",
      "outputs": [
        {
          "internalType": "string",
          "name": "",
          "type": "string"
        }
      ],
      "stateMutability": "view",
      "type": "function"
    },
    {
      "inputs": [
        {
          "internalType": "uint256",
          "name": "tokenId",
          "type": "uint256"
        }
      ],
      "name": "getApproved",
      "outputs": [
        {
          "internalType": "address",
          "name": "",
          "type": "address"
        }
      ],
      "stateMutability": "view",
      "type": "function"
    },
    {
      "inputs": [
        {
          "internalType": "address",
          "name": "owner",
          "type": "address"
        },
        {
          "internalType": "address",
          "name": "operator",
          "type": "address"
        }
      ],
      "name": "isApprovedForAll",
      "outputs": [
        {
          "internalType": "bool",
          "name": "",
          "type": "bool"
        }
      ],
      "stateMutability": "view",
      "type": "function"
    },
    {
      "inputs": [
        {
          "internalType": "address",
          "name": "recipient",
          "type": "address"
        }
      ],
      "name": "mintTo",
      "outputs": [
        {
          "internalType": "uint256",
          "name": "",
          "type": "uint256"
        }
      ],
      "stateMutability": "payable",
      "type": "function"
    },
    {
      "inputs": [],
      "name": "name",
      "outputs": [
        {
          "internalType": "string",
          "name": "",
          "type": "string"
        }
      ],
      "stateMutability": "view",
      "type": "function"
    },
    {
      "inputs": [
        {
          "internalType": "uint256",
          "name": "tokenId",
          "type": "uint256"
        }
      ],
      "name": "ownerOf",
      "outputs": [
        {
          "internalType": "address",
          "name": "",
          "type": "address"
        }
      ],
      "stateMutability": "view",
      "type": "function"
    },
    {
      "inputs": [
        {
          "internalType": "address",
          "name": "dest",
          "type": "address"
        }
      ],
      "name": "payments",
      "outputs": [
        {
          "internalType": "uint256",
          "name": "",
          "type": "uint256"
        }
      ],
      "stateMutability": "view",
      "type": "function"
    },
    {
      "inputs": [
        {
          "internalType": "address",
          "name": "from",
          "type": "address"
        },
        {
          "internalType": "address",
          "name": "to",
          "type": "address"
        },
        {
          "internalType": "uint256",
          "name": "tokenId",
          "type": "uint256"
        }
      ],
      "name": "safeTransferFrom",
      "outputs": [],
      "stateMutability": "nonpayable",
      "type": "function"
    },
    {
      "inputs": [
        {
          "internalType": "address",
          "name": "from",
          "type": "address"
        },
        {
          "internalType": "address",
          "name": "to",
          "type": "address"
        },
        {
          "internalType": "uint256",
          "name": "tokenId",
          "type": "uint256"
        },
        {
          "internalType": "bytes",
          "name": "_data",
          "type": "bytes"
        }
      ],
      "name": "safeTransferFrom",
      "outputs": [],
      "stateMutability": "nonpayable",
      "type": "function"
    },
    {
      "inputs": [
        {
          "internalType": "address",
          "name": "operator",
          "type": "address"
        },
        {
          "internalType": "bool",
          "name": "approved",
          "type": "bool"
        }
      ],
      "name": "setApprovalForAll",
      "outputs": [],
      "stateMutability": "nonpayable",
      "type": "function"
    },
    {
      "inputs": [
        {
          "internalType": "string",
          "name": "_baseTokenURI",
          "type": "string"
        }
      ],
      "name": "setBaseTokenURI",
      "outputs": [],
      "stateMutability": "nonpayable",
      "type": "function"
    },
    {
      "inputs": [
        {
          "internalType": "bytes4",
          "name": "interfaceId",
          "type": "bytes4"
        }
      ],
      "name": "supportsInterface",
      "outputs": [
        {
          "internalType": "bool",
          "name": "",
          "type": "bool"
        }
      ],
      "stateMutability": "view",
      "type": "function"
    },
    {
      "inputs": [],
      "name": "symbol",
      "outputs": [
        {
          "internalType": "string",
          "name": "",
          "type": "string"
        }
      ],
      "stateMutability": "view",
      "type": "function"
    },
    {
      "inputs": [
        {
          "internalType": "uint256",
          "name": "tokenId",
          "type": "uint256"
        }
      ],
      "name": "tokenURI",
      "outputs": [
        {
          "internalType": "string",
          "name": "",
          "type": "string"
        }
      ],
      "stateMutability": "view",
      "type": "function"
    },
    {
      "inputs": [
        {
          "internalType": "address",
          "name": "from",
          "type": "address"
        },
        {
          "internalType": "address",
          "name": "to",
          "type": "address"
        },
        {
          "internalType": "uint256",
          "name": "tokenId",
          "type": "uint256"
        }
      ],
      "name": "transferFrom",
      "outputs": [],
      "stateMutability": "nonpayable",
      "type": "function"
    },
    {
      "inputs": [
        {
          "internalType": "address payable",
          "name": "payee",
          "type": "address"
        }
      ],
      "name": "withdrawPayments",
      "outputs": [],
      "stateMutability": "nonpayable",
      "type": "function"
    }
  ],
  "bytecode": "0x60a06040523480156200001157600080fd5b506040518060400160405280600b81526020017f4e46545475746f7269616c0000000000000000000000000000000000000000008152506040518060400160405280600381526020017f4e4654000000000000000000000000000000000000000000000000000000000081525081600090805190602001906200009692919062000142565b508060019080519060200190620000af92919062000142565b505050604051620000c090620001d3565b604051809103906000f080158015620000dd573d6000803e3d6000fd5b5073ffffffffffffffffffffffffffffffffffffffff1660808173ffffffffffffffffffffffffffffffffffffffff1660601b8152505060405180602001604052806000815250600790805190602001906200013b92919062000142565b5062000265565b828054620001509062000200565b90600052602060002090601f016020900481019282620001745760008555620001c0565b82601f106200018f57805160ff1916838001178555620001c0565b82800160010185558215620001c0579182015b82811115620001bf578251825591602001919060010190620001a2565b5b509050620001cf9190620001e1565b5090565b610d09806200326283390190565b5b80821115620001fc576000816000905550600101620001e2565b5090565b600060028204905060018216806200021957607f821691505b6020821081141562000230576200022f62000236565b5b50919050565b7f4e487b7100000000000000000000000000000000000000000000000000000000600052602260045260246000fd5b60805160601c612fd76200028b600039600081816108820152610db60152612fd76000f3fe60806040526004361061011f5760003560e01c8063755edd17116100a0578063c002d23d11610064578063c002d23d146103e8578063c87b56dd14610413578063d547cfb714610450578063e2982c211461047b578063e985e9c5146104b85761011f565b8063755edd1714610310578063902d55a51461034057806395d89b411461036b578063a22cb46514610396578063b88d4fde146103bf5761011f565b806330176e13116100e757806330176e131461021b57806331b3eb941461024457806342842e0e1461026d5780636352211e1461029657806370a08231146102d35761011f565b806301ffc9a71461012457806306fdde0314610161578063081812fc1461018c578063095ea7b3146101c957806323b872dd146101f2575b600080fd5b34801561013057600080fd5b5061014b60048036038101906101469190611fed565b6104f5565b6040516101589190612487565b60405180910390f35b34801561016d57600080fd5b506101766105d7565b60405161018391906124a2565b60405180910390f35b34801561019857600080fd5b506101b360048036038101906101ae9190612080565b610669565b6040516101c09190612405565b60405180910390f35b3480156101d557600080fd5b506101f060048036038101906101eb9190611fb1565b6106ee565b005b3480156101fe57600080fd5b5061021960048036038101906102149190611eab565b610806565b005b34801561022757600080fd5b50610242600480360381019061023d919061203f565b610866565b005b34801561025057600080fd5b5061026b60048036038101906102669190611e46565b610880565b005b34801561027957600080fd5b50610294600480360381019061028f9190611eab565b61090e565b005b3480156102a257600080fd5b506102bd60048036038101906102b89190612080565b61092e565b6040516102ca9190612405565b60405180910390f35b3480156102df57600080fd5b506102fa60048036038101906102f59190611e1d565b6109e0565b60405161030791906126c4565b60405180910390f35b61032a60048036038101906103259190611e1d565b610a98565b60405161033791906126c4565b60405180910390f35b34801561034c57600080fd5b50610355610b61565b60405161036291906126c4565b60405180910390f35b34801561037757600080fd5b50610380610b67565b60405161038d91906124a2565b60405180910390f35b3480156103a257600080fd5b506103bd60048036038101906103b89190611f75565b610bf9565b005b3480156103cb57600080fd5b506103e660048036038101906103e19190611efa565b610c0f565b005b3480156103f457600080fd5b506103fd610c71565b60405161040a91906126c4565b60405180910390f35b34801561041f57600080fd5b5061043a60048036038101906104359190612080565b610c7d565b60405161044791906124a2565b60405180910390f35b34801561045c57600080fd5b50610465610d24565b60405161047291906124a2565b60405180910390f35b34801561048757600080fd5b506104a2600480360381019061049d9190611e1d565b610db2565b6040516104af91906126c4565b60405180910390f35b3480156104c457600080fd5b506104df60048036038101906104da9190611e6f565b610e64565b6040516104ec9190612487565b60405180910390f35b60007f80ac58cd000000000000000000000000000000000000000000000000000000007bffffffffffffffffffffffffffffffffffffffffffffffffffffffff1916827bffffffffffffffffffffffffffffffffffffffffffffffffffffffff191614806105c057507f5b5e139f000000000000000000000000000000000000000000000000000000007bffffffffffffffffffffffffffffffffffffffffffffffffffffffff1916827bffffffffffffffffffffffffffffffffffffffffffffffffffffffff1916145b806105d057506105cf82610ef8565b5b9050919050565b6060600080546105e69061292c565b80601f01602080910402602001604051908101604052809291908181526020018280546106129061292c565b801561065f5780601f106106345761010080835404028352916020019161065f565b820191906000526020600020905b81548152906001019060200180831161064257829003601f168201915b5050505050905090565b600061067482610f62565b6106b3576040517f08c379a00000000000000000000000000000000000000000000000000000000081526004016106aa90612624565b60405180910390fd5b6004600083815260200190815260200160002060009054906101000a900473ffffffffffffffffffffffffffffffffffffffff169050919050565b60006106f98261092e565b90508073ffffffffffffffffffffffffffffffffffffffff168373ffffffffffffffffffffffffffffffffffffffff16141561076a576040517f08c379a000000000000000000000000000000000000000000000000000000000815260040161076190612664565b60405180910390fd5b8073ffffffffffffffffffffffffffffffffffffffff16610789610fce565b73ffffffffffffffffffffffffffffffffffffffff1614806107b857506107b7816107b2610fce565b610e64565b5b6107f7576040517f08c379a00000000000000000000000000000000000000000000000000000000081526004016107ee906125a4565b60405180910390fd5b6108018383610fd6565b505050565b610817610811610fce565b8261108f565b610856576040517f08c379a000000000000000000000000000000000000000000000000000000000815260040161084d90612684565b60405180910390fd5b61086183838361116d565b505050565b806007908051906020019061087c929190611c17565b5050565b7f000000000000000000000000000000000000000000000000000000000000000073ffffffffffffffffffffffffffffffffffffffff166351cff8d9826040518263ffffffff1660e01b81526004016108d99190612420565b600060405180830381600087803b1580156108f357600080fd5b505af1158015610907573d6000803e3d6000fd5b5050505050565b61092983838360405180602001604052806000815250610c0f565b505050565b6000806002600084815260200190815260200160002060009054906101000a900473ffffffffffffffffffffffffffffffffffffffff169050600073ffffffffffffffffffffffffffffffffffffffff168173ffffffffffffffffffffffffffffffffffffffff1614156109d7576040517f08c379a00000000000000000000000000000000000000000000000000000000081526004016109ce906125e4565b60405180910390fd5b80915050919050565b60008073ffffffffffffffffffffffffffffffffffffffff168273ffffffffffffffffffffffffffffffffffffffff161415610a51576040517f08c379a0000000000000000000000000000000000000000000000000000000008152600401610a48906125c4565b60405180910390fd5b600360008373ffffffffffffffffffffffffffffffffffffffff1673ffffffffffffffffffffffffffffffffffffffff168152602001908152602001600020549050919050565b600080610aa560066113d4565b90506127108110610aeb576040517f08c379a0000000000000000000000000000000000000000000000000000000008152600401610ae2906126a4565b60405180910390fd5b67011c37937e0800003414610b35576040517f08c379a0000000000000000000000000000000000000000000000000000000008152600401610b2c90612564565b60405180910390fd5b610b3f60066113e2565b6000610b4b60066113d4565b9050610b5784826113f8565b8092505050919050565b61271081565b606060018054610b769061292c565b80601f0160208091040260200160405190810160405280929190818152602001828054610ba29061292c565b8015610bef5780601f10610bc457610100808354040283529160200191610bef565b820191906000526020600020905b815481529060010190602001808311610bd257829003601f168201915b5050505050905090565b610c0b610c04610fce565b8383611416565b5050565b610c20610c1a610fce565b8361108f565b610c5f576040517f08c379a0000000000000000000000000000000000000000000000000000000008152600401610c5690612684565b60405180910390fd5b610c6b84848484611583565b50505050565b67011c37937e08000081565b6060610c8882610f62565b610cc7576040517f08c379a0000000000000000000000000000000000000000000000000000000008152600401610cbe90612644565b60405180910390fd5b6000610cd16115df565b90506000815111610cf15760405180602001604052806000815250610d1c565b80610cfb84611671565b604051602001610d0c9291906123e1565b6040516020818303038152906040525b915050919050565b60078054610d319061292c565b80601f0160208091040260200160405190810160405280929190818152602001828054610d5d9061292c565b8015610daa5780601f10610d7f57610100808354040283529160200191610daa565b820191906000526020600020905b815481529060010190602001808311610d8d57829003601f168201915b505050505081565b60007f000000000000000000000000000000000000000000000000000000000000000073ffffffffffffffffffffffffffffffffffffffff1663e3a9db1a836040518263ffffffff1660e01b8152600401610e0d9190612405565b60206040518083038186803b158015610e2557600080fd5b505afa158015610e39573d6000803e3d6000fd5b505050506040513d601f19601f82011682018060405250810190610e5d91906120a9565b9050919050565b6000600560008473ffffffffffffffffffffffffffffffffffffffff1673ffffffffffffffffffffffffffffffffffffffff16815260200190815260200160002060008373ffffffffffffffffffffffffffffffffffffffff1673ffffffffffffffffffffffffffffffffffffffff16815260200190815260200160002060009054906101000a900460ff16905092915050565b60007f01ffc9a7000000000000000000000000000000000000000000000000000000007bffffffffffffffffffffffffffffffffffffffffffffffffffffffff1916827bffffffffffffffffffffffffffffffffffffffffffffffffffffffff1916149050919050565b60008073ffffffffffffffffffffffffffffffffffffffff166002600084815260200190815260200160002060009054906101000a900473ffffffffffffffffffffffffffffffffffffffff1673ffffffffffffffffffffffffffffffffffffffff1614159050919050565b600033905090565b816004600083815260200190815260200160002060006101000a81548173ffffffffffffffffffffffffffffffffffffffff021916908373ffffffffffffffffffffffffffffffffffffffff160217905550808273ffffffffffffffffffffffffffffffffffffffff166110498361092e565b73ffffffffffffffffffffffffffffffffffffffff167f8c5be1e5ebec7d5bd14f71427d1e84f3dd0314c0f7b2291e5b200ac8c7c3b92560405160405180910390a45050565b600061109a82610f62565b6110d9576040517f08c379a00000000000000000000000000000000000000000000000000000000081526004016110d090612584565b60405180910390fd5b60006110e48361092e565b90508073ffffffffffffffffffffffffffffffffffffffff168473ffffffffffffffffffffffffffffffffffffffff16148061112657506111258185610e64565b5b8061116457508373ffffffffffffffffffffffffffffffffffffffff1661114c84610669565b73ffffffffffffffffffffffffffffffffffffffff16145b91505092915050565b8273ffffffffffffffffffffffffffffffffffffffff1661118d8261092e565b73ffffffffffffffffffffffffffffffffffffffff16146111e3576040517f08c379a00000000000000000000000000000000000000000000000000000000081526004016111da906124e4565b60405180910390fd5b600073ffffffffffffffffffffffffffffffffffffffff168273ffffffffffffffffffffffffffffffffffffffff161415611253576040517f08c379a000000000000000000000000000000000000000000000000000000000815260040161124a90612524565b60405180910390fd5b61125e83838361181e565b611269600082610fd6565b6001600360008573ffffffffffffffffffffffffffffffffffffffff1673ffffffffffffffffffffffffffffffffffffffff16815260200190815260200160002060008282546112b99190612830565b925050819055506001600360008473ffffffffffffffffffffffffffffffffffffffff1673ffffffffffffffffffffffffffffffffffffffff168152602001908152602001600020600082825461131091906127a9565b92505081905550816002600083815260200190815260200160002060006101000a81548173ffffffffffffffffffffffffffffffffffffffff021916908373ffffffffffffffffffffffffffffffffffffffff160217905550808273ffffffffffffffffffffffffffffffffffffffff168473ffffffffffffffffffffffffffffffffffffffff167fddf252ad1be2c89b69c2b068fc378daa952ba7f163c4a11628f55a4df523b3ef60405160405180910390a46113cf838383611823565b505050565b600081600001549050919050565b6001816000016000828254019250508190555050565b611412828260405180602001604052806000815250611828565b5050565b8173ffffffffffffffffffffffffffffffffffffffff168373ffffffffffffffffffffffffffffffffffffffff161415611485576040517f08c379a000000000000000000000000000000000000000000000000000000000815260040161147c90612544565b60405180910390fd5b80600560008573ffffffffffffffffffffffffffffffffffffffff1673ffffffffffffffffffffffffffffffffffffffff16815260200190815260200160002060008473ffffffffffffffffffffffffffffffffffffffff1673ffffffffffffffffffffffffffffffffffffffff16815260200190815260200160002060006101000a81548160ff0219169083151502179055508173ffffffffffffffffffffffffffffffffffffffff168373ffffffffffffffffffffffffffffffffffffffff167f17307eab39ab6107e8899845ad3d59bd9653f200f220920489ca2b5937696c31836040516115769190612487565b60405180910390a3505050565b61158e84848461116d565b61159a84848484611883565b6115d9576040517f08c379a00000000000000000000000000000000000000000000000000000000081526004016115d0906124c4565b60405180910390fd5b50505050565b6060600780546115ee9061292c565b80601f016020809104026020016040519081016040528092919081815260200182805461161a9061292c565b80156116675780601f1061163c57610100808354040283529160200191611667565b820191906000526020600020905b81548152906001019060200180831161164a57829003601f168201915b5050505050905090565b606060008214156116b9576040518060400160405280600181526020017f30000000000000000000000000000000000000000000000000000000000000008152509050611819565b600082905060005b600082146116eb5780806116d49061298f565b915050600a826116e491906127ff565b91506116c1565b60008167ffffffffffffffff81111561172d577f4e487b7100000000000000000000000000000000000000000000000000000000600052604160045260246000fd5b6040519080825280601f01601f19166020018201604052801561175f5781602001600182028036833780820191505090505b5090505b60008514611812576001826117789190612830565b9150600a8561178791906129d8565b603061179391906127a9565b60f81b8183815181106117cf577f4e487b7100000000000000000000000000000000000000000000000000000000600052603260045260246000fd5b60200101907effffffffffffffffffffffffffffffffffffffffffffffffffffffffffffff1916908160001a905350600a8561180b91906127ff565b9450611763565b8093505050505b919050565b505050565b505050565b6118328383611a1a565b61183f6000848484611883565b61187e576040517f08c379a0000000000000000000000000000000000000000000000000000000008152600401611875906124c4565b60405180910390fd5b505050565b60006118a48473ffffffffffffffffffffffffffffffffffffffff16611bf4565b15611a0d578373ffffffffffffffffffffffffffffffffffffffff1663150b7a026118cd610fce565b8786866040518563ffffffff1660e01b81526004016118ef949392919061243b565b602060405180830381600087803b15801561190957600080fd5b505af192505050801561193a57506040513d601f19601f820116820180604052508101906119379190612016565b60015b6119bd573d806000811461196a576040519150601f19603f3d011682016040523d82523d6000602084013e61196f565b606091505b506000815114156119b5576040517f08c379a00000000000000000000000000000000000000000000000000000000081526004016119ac906124c4565b60405180910390fd5b805181602001fd5b63150b7a0260e01b7bffffffffffffffffffffffffffffffffffffffffffffffffffffffff1916817bffffffffffffffffffffffffffffffffffffffffffffffffffffffff191614915050611a12565b600190505b949350505050565b600073ffffffffffffffffffffffffffffffffffffffff168273ffffffffffffffffffffffffffffffffffffffff161415611a8a576040517f08c379a0000000000000000000000000000000000000000000000000000000008152600401611a8190612604565b60405180910390fd5b611a9381610f62565b15611ad3576040517f08c379a0000000000000000000000000000000000000000000000000000000008152600401611aca90612504565b60405180910390fd5b611adf6000838361181e565b6001600360008473ffffffffffffffffffffffffffffffffffffffff1673ffffffffffffffffffffffffffffffffffffffff1681526020019081526020016000206000828254611b2f91906127a9565b92505081905550816002600083815260200190815260200160002060006101000a81548173ffffffffffffffffffffffffffffffffffffffff021916908373ffffffffffffffffffffffffffffffffffffffff160217905550808273ffffffffffffffffffffffffffffffffffffffff16600073ffffffffffffffffffffffffffffffffffffffff167fddf252ad1be2c89b69c2b068fc378daa952ba7f163c4a11628f55a4df523b3ef60405160405180910390a4611bf060008383611823565b5050565b6000808273ffffffffffffffffffffffffffffffffffffffff163b119050919050565b828054611c239061292c565b90600052602060002090601f016020900481019282611c455760008555611c8c565b82601f10611c5e57805160ff1916838001178555611c8c565b82800160010185558215611c8c579182015b82811115611c8b578251825591602001919060010190611c70565b5b509050611c999190611c9d565b5090565b5b80821115611cb6576000816000905550600101611c9e565b5090565b6000611ccd611cc884612704565b6126df565b905082815260208101848484011115611ce557600080fd5b611cf08482856128ea565b509392505050565b6000611d0b611d0684612735565b6126df565b905082815260208101848484011115611d2357600080fd5b611d2e8482856128ea565b509392505050565b600081359050611d4581612f2e565b92915050565b600081359050611d5a81612f45565b92915050565b600081359050611d6f81612f5c565b92915050565b600081359050611d8481612f73565b92915050565b600081519050611d9981612f73565b92915050565b600082601f830112611db057600080fd5b8135611dc0848260208601611cba565b91505092915050565b600082601f830112611dda57600080fd5b8135611dea848260208601611cf8565b91505092915050565b600081359050611e0281612f8a565b92915050565b600081519050611e1781612f8a565b92915050565b600060208284031215611e2f57600080fd5b6000611e3d84828501611d36565b91505092915050565b600060208284031215611e5857600080fd5b6000611e6684828501611d4b565b91505092915050565b60008060408385031215611e8257600080fd5b6000611e9085828601611d36565b9250506020611ea185828601611d36565b9150509250929050565b600080600060608486031215611ec057600080fd5b6000611ece86828701611d36565b9350506020611edf86828701611d36565b9250506040611ef086828701611df3565b9150509250925092565b60008060008060808587031215611f1057600080fd5b6000611f1e87828801611d36565b9450506020611f2f87828801611d36565b9350506040611f4087828801611df3565b925050606085013567ffffffffffffffff811115611f5d57600080fd5b611f6987828801611d9f565b91505092959194509250565b60008060408385031215611f8857600080fd5b6000611f9685828601611d36565b9250506020611fa785828601611d60565b9150509250929050565b60008060408385031215611fc457600080fd5b6000611fd285828601611d36565b9250506020611fe385828601611df3565b9150509250929050565b600060208284031215611fff57600080fd5b600061200d84828501611d75565b91505092915050565b60006020828403121561202857600080fd5b600061203684828501611d8a565b91505092915050565b60006020828403121561205157600080fd5b600082013567ffffffffffffffff81111561206b57600080fd5b61207784828501611dc9565b91505092915050565b60006020828403121561209257600080fd5b60006120a084828501611df3565b91505092915050565b6000602082840312156120bb57600080fd5b60006120c984828501611e08565b91505092915050565b6120db81612876565b82525050565b6120ea81612864565b82525050565b6120f981612888565b82525050565b600061210a82612766565b612114818561277c565b93506121248185602086016128f9565b61212d81612ac5565b840191505092915050565b600061214382612771565b61214d818561278d565b935061215d8185602086016128f9565b61216681612ac5565b840191505092915050565b600061217c82612771565b612186818561279e565b93506121968185602086016128f9565b80840191505092915050565b60006121af60328361278d565b91506121ba82612ad6565b604082019050919050565b60006121d260258361278d565b91506121dd82612b25565b604082019050919050565b60006121f5601c8361278d565b915061220082612b74565b602082019050919050565b600061221860248361278d565b915061222382612b9d565b604082019050919050565b600061223b60198361278d565b915061224682612bec565b602082019050919050565b600061225e602e8361278d565b915061226982612c15565b604082019050919050565b6000612281602c8361278d565b915061228c82612c64565b604082019050919050565b60006122a460388361278d565b91506122af82612cb3565b604082019050919050565b60006122c7602a8361278d565b91506122d282612d02565b604082019050919050565b60006122ea60298361278d565b91506122f582612d51565b604082019050919050565b600061230d60208361278d565b915061231882612da0565b602082019050919050565b6000612330602c8361278d565b915061233b82612dc9565b604082019050919050565b6000612353602f8361278d565b915061235e82612e18565b604082019050919050565b600061237660218361278d565b915061238182612e67565b604082019050919050565b600061239960318361278d565b91506123a482612eb6565b604082019050919050565b60006123bc60128361278d565b91506123c782612f05565b602082019050919050565b6123db816128e0565b82525050565b60006123ed8285612171565b91506123f98284612171565b91508190509392505050565b600060208201905061241a60008301846120e1565b92915050565b600060208201905061243560008301846120d2565b92915050565b600060808201905061245060008301876120e1565b61245d60208301866120e1565b61246a60408301856123d2565b818103606083015261247c81846120ff565b905095945050505050565b600060208201905061249c60008301846120f0565b92915050565b600060208201905081810360008301526124bc8184612138565b905092915050565b600060208201905081810360008301526124dd816121a2565b9050919050565b600060208201905081810360008301526124fd816121c5565b9050919050565b6000602082019050818103600083015261251d816121e8565b9050919050565b6000602082019050818103600083015261253d8161220b565b9050919050565b6000602082019050818103600083015261255d8161222e565b9050919050565b6000602082019050818103600083015261257d81612251565b9050919050565b6000602082019050818103600083015261259d81612274565b9050919050565b600060208201905081810360008301526125bd81612297565b9050919050565b600060208201905081810360008301526125dd816122ba565b9050919050565b600060208201905081810360008301526125fd816122dd565b9050919050565b6000602082019050818103600083015261261d81612300565b9050919050565b6000602082019050818103600083015261263d81612323565b9050919050565b6000602082019050818103600083015261265d81612346565b9050919050565b6000602082019050818103600083015261267d81612369565b9050919050565b6000602082019050818103600083015261269d8161238c565b9050919050565b600060208201905081810360008301526126bd816123af565b9050919050565b60006020820190506126d960008301846123d2565b92915050565b60006126e96126fa565b90506126f5828261295e565b919050565b6000604051905090565b600067ffffffffffffffff82111561271f5761271e612a96565b5b61272882612ac5565b9050602081019050919050565b600067ffffffffffffffff8211156127505761274f612a96565b5b61275982612ac5565b9050602081019050919050565b600081519050919050565b600081519050919050565b600082825260208201905092915050565b600082825260208201905092915050565b600081905092915050565b60006127b4826128e0565b91506127bf836128e0565b9250827fffffffffffffffffffffffffffffffffffffffffffffffffffffffffffffffff038211156127f4576127f3612a09565b5b828201905092915050565b600061280a826128e0565b9150612815836128e0565b92508261282557612824612a38565b5b828204905092915050565b600061283b826128e0565b9150612846836128e0565b92508282101561285957612858612a09565b5b828203905092915050565b600061286f826128c0565b9050919050565b6000612881826128c0565b9050919050565b60008115159050919050565b60007fffffffff0000000000000000000000000000000000000000000000000000000082169050919050565b600073ffffffffffffffffffffffffffffffffffffffff82169050919050565b6000819050919050565b82818337600083830152505050565b60005b838110156129175780820151818401526020810190506128fc565b83811115612926576000848401525b50505050565b6000600282049050600182168061294457607f821691505b6020821081141561295857612957612a67565b5b50919050565b61296782612ac5565b810181811067ffffffffffffffff8211171561298657612985612a96565b5b80604052505050565b600061299a826128e0565b91507fffffffffffffffffffffffffffffffffffffffffffffffffffffffffffffffff8214156129cd576129cc612a09565b5b600182019050919050565b60006129e3826128e0565b91506129ee836128e0565b9250826129fe576129fd612a38565b5b828206905092915050565b7f4e487b7100000000000000000000000000000000000000000000000000000000600052601160045260246000fd5b7f4e487b7100000000000000000000000000000000000000000000000000000000600052601260045260246000fd5b7f4e487b7100000000000000000000000000000000000000000000000000000000600052602260045260246000fd5b7f4e487b7100000000000000000000000000000000000000000000000000000000600052604160045260246000fd5b6000601f19601f8301169050919050565b7f4552433732313a207472616e7366657220746f206e6f6e20455243373231526560008201527f63656976657220696d706c656d656e7465720000000000000000000000000000602082015250565b7f4552433732313a207472616e736665722066726f6d20696e636f72726563742060008201527f6f776e6572000000000000000000000000000000000000000000000000000000602082015250565b7f4552433732313a20746f6b656e20616c7265616479206d696e74656400000000600082015250565b7f4552433732313a207472616e7366657220746f20746865207a65726f2061646460008201527f7265737300000000000000000000000000000000000000000000000000000000602082015250565b7f4552433732313a20617070726f766520746f2063616c6c657200000000000000600082015250565b7f5472616e73616374696f6e2076616c756520646964206e6f7420657175616c2060008201527f746865206d696e74207072696365000000000000000000000000000000000000602082015250565b7f4552433732313a206f70657261746f7220717565727920666f72206e6f6e657860008201527f697374656e7420746f6b656e0000000000000000000000000000000000000000602082015250565b7f4552433732313a20617070726f76652063616c6c6572206973206e6f74206f7760008201527f6e6572206e6f7220617070726f76656420666f7220616c6c0000000000000000602082015250565b7f4552433732313a2062616c616e636520717565727920666f7220746865207a6560008201527f726f206164647265737300000000000000000000000000000000000000000000602082015250565b7f4552433732313a206f776e657220717565727920666f72206e6f6e657869737460008201527f656e7420746f6b656e0000000000000000000000000000000000000000000000602082015250565b7f4552433732313a206d696e7420746f20746865207a65726f2061646472657373600082015250565b7f4552433732313a20617070726f76656420717565727920666f72206e6f6e657860008201527f697374656e7420746f6b656e0000000000000000000000000000000000000000602082015250565b7f4552433732314d657461646174613a2055524920717565727920666f72206e6f60008201527f6e6578697374656e7420746f6b656e0000000000000000000000000000000000602082015250565b7f4552433732313a20617070726f76616c20746f2063757272656e74206f776e6560008201527f7200000000000000000000000000000000000000000000000000000000000000602082015250565b7f4552433732313a207472616e736665722063616c6c6572206973206e6f74206f60008201527f776e6572206e6f7220617070726f766564000000000000000000000000000000602082015250565b7f4d617820737570706c7920726561636865640000000000000000000000000000600082015250565b612f3781612864565b8114612f4257600080fd5b50565b612f4e81612876565b8114612f5957600080fd5b50565b612f6581612888565b8114612f7057600080fd5b50565b612f7c81612894565b8114612f8757600080fd5b50565b612f93816128e0565b8114612f9e57600080fd5b5056fea26469706673582212205ad97618e1bb94049216e828f493643289da0006630f45eb5039a2ee50c3da8064736f6c63430008010033608060405234801561001057600080fd5b5061002d61002261003260201b60201c565b61003a60201b60201c565b6100fe565b600033905090565b60008060009054906101000a900473ffffffffffffffffffffffffffffffffffffffff169050816000806101000a81548173ffffffffffffffffffffffffffffffffffffffff021916908373ffffffffffffffffffffffffffffffffffffffff1602179055508173ffffffffffffffffffffffffffffffffffffffff168173ffffffffffffffffffffffffffffffffffffffff167f8be0079c531659141344cd1fd0a4f28419497f9722a3daafe3b4186f6b6457e060405160405180910390a35050565b610bfc8061010d6000396000f3fe6080604052600436106100555760003560e01c806351cff8d91461005a578063715018a6146100835780638da5cb5b1461009a578063e3a9db1a146100c5578063f2fde38b14610102578063f340fa011461012b575b600080fd5b34801561006657600080fd5b50610081600480360381019061007c91906107f5565b610147565b005b34801561008f57600080fd5b506100986102c7565b005b3480156100a657600080fd5b506100af61034f565b6040516100bc9190610900565b60405180910390f35b3480156100d157600080fd5b506100ec60048036038101906100e791906107cc565b610378565b6040516100f9919061099b565b60405180910390f35b34801561010e57600080fd5b50610129600480360381019061012491906107cc565b6103c1565b005b610145600480360381019061014091906107cc565b6104b9565b005b61014f6105e2565b73ffffffffffffffffffffffffffffffffffffffff1661016d61034f565b73ffffffffffffffffffffffffffffffffffffffff16146101c3576040517f08c379a00000000000000000000000000000000000000000000000000000000081526004016101ba9061097b565b60405180910390fd5b6000600160008373ffffffffffffffffffffffffffffffffffffffff1673ffffffffffffffffffffffffffffffffffffffff1681526020019081526020016000205490506000600160008473ffffffffffffffffffffffffffffffffffffffff1673ffffffffffffffffffffffffffffffffffffffff16815260200190815260200160002081905550610275818373ffffffffffffffffffffffffffffffffffffffff166105ea90919063ffffffff16565b8173ffffffffffffffffffffffffffffffffffffffff167f7084f5476618d8e60b11ef0d7d3f06914655adb8793e28ff7f018d4c76d505d5826040516102bb919061099b565b60405180910390a25050565b6102cf6105e2565b73ffffffffffffffffffffffffffffffffffffffff166102ed61034f565b73ffffffffffffffffffffffffffffffffffffffff1614610343576040517f08c379a000000000000000000000000000000000000000000000000000000000815260040161033a9061097b565b60405180910390fd5b61034d60006106de565b565b60008060009054906101000a900473ffffffffffffffffffffffffffffffffffffffff16905090565b6000600160008373ffffffffffffffffffffffffffffffffffffffff1673ffffffffffffffffffffffffffffffffffffffff168152602001908152602001600020549050919050565b6103c96105e2565b73ffffffffffffffffffffffffffffffffffffffff166103e761034f565b73ffffffffffffffffffffffffffffffffffffffff161461043d576040517f08c379a00000000000000000000000000000000000000000000000000000000081526004016104349061097b565b60405180910390fd5b600073ffffffffffffffffffffffffffffffffffffffff168173ffffffffffffffffffffffffffffffffffffffff1614156104ad576040517f08c379a00000000000000000000000000000000000000000000000000000000081526004016104a49061091b565b60405180910390fd5b6104b6816106de565b50565b6104c16105e2565b73ffffffffffffffffffffffffffffffffffffffff166104df61034f565b73ffffffffffffffffffffffffffffffffffffffff1614610535576040517f08c379a000000000000000000000000000000000000000000000000000000000815260040161052c9061097b565b60405180910390fd5b600034905080600160008473ffffffffffffffffffffffffffffffffffffffff1673ffffffffffffffffffffffffffffffffffffffff168152602001908152602001600020600082825461058991906109d2565b925050819055508173ffffffffffffffffffffffffffffffffffffffff167f2da466a7b24304f47e87fa2e1e5a81b9831ce54fec19055ce277ca2f39ba42c4826040516105d6919061099b565b60405180910390a25050565b600033905090565b8047101561062d576040517f08c379a00000000000000000000000000000000000000000000000000000000081526004016106249061095b565b60405180910390fd5b60008273ffffffffffffffffffffffffffffffffffffffff1682604051610653906108eb565b60006040518083038185875af1925050503d8060008114610690576040519150601f19603f3d011682016040523d82523d6000602084013e610695565b606091505b50509050806106d9576040517f08c379a00000000000000000000000000000000000000000000000000000000081526004016106d09061093b565b60405180910390fd5b505050565b60008060009054906101000a900473ffffffffffffffffffffffffffffffffffffffff169050816000806101000a81548173ffffffffffffffffffffffffffffffffffffffff021916908373ffffffffffffffffffffffffffffffffffffffff1602179055508173ffffffffffffffffffffffffffffffffffffffff168173ffffffffffffffffffffffffffffffffffffffff167f8be0079c531659141344cd1fd0a4f28419497f9722a3daafe3b4186f6b6457e060405160405180910390a35050565b6000813590506107b181610b98565b92915050565b6000813590506107c681610baf565b92915050565b6000602082840312156107de57600080fd5b60006107ec848285016107a2565b91505092915050565b60006020828403121561080757600080fd5b6000610815848285016107b7565b91505092915050565b61082781610a28565b82525050565b600061083a6026836109c1565b915061084582610aa5565b604082019050919050565b600061085d603a836109c1565b915061086882610af4565b604082019050919050565b6000610880601d836109c1565b915061088b82610b43565b602082019050919050565b60006108a36020836109c1565b91506108ae82610b6c565b602082019050919050565b60006108c66000836109b6565b91506108d182610b95565b600082019050919050565b6108e581610a6c565b82525050565b60006108f6826108b9565b9150819050919050565b6000602082019050610915600083018461081e565b92915050565b600060208201905081810360008301526109348161082d565b9050919050565b6000602082019050818103600083015261095481610850565b9050919050565b6000602082019050818103600083015261097481610873565b9050919050565b6000602082019050818103600083015261099481610896565b9050919050565b60006020820190506109b060008301846108dc565b92915050565b600081905092915050565b600082825260208201905092915050565b60006109dd82610a6c565b91506109e883610a6c565b9250827fffffffffffffffffffffffffffffffffffffffffffffffffffffffffffffffff03821115610a1d57610a1c610a76565b5b828201905092915050565b6000610a3382610a4c565b9050919050565b6000610a4582610a4c565b9050919050565b600073ffffffffffffffffffffffffffffffffffffffff82169050919050565b6000819050919050565b7f4e487b7100000000000000000000000000000000000000000000000000000000600052601160045260246000fd5b7f4f776e61626c653a206e6577206f776e657220697320746865207a65726f206160008201527f6464726573730000000000000000000000000000000000000000000000000000602082015250565b7f416464726573733a20756e61626c6520746f2073656e642076616c75652c207260008201527f6563697069656e74206d61792068617665207265766572746564000000000000602082015250565b7f416464726573733a20696e73756666696369656e742062616c616e6365000000600082015250565b7f4f776e61626c653a2063616c6c6572206973206e6f7420746865206f776e6572600082015250565b50565b610ba181610a28565b8114610bac57600080fd5b50565b610bb881610a3a565b8114610bc357600080fd5b5056fea264697066735822122073b307195fd92b28f2600edbbb914776573abe0392628b3f8a5ee2d6ab956cfa64736f6c63430008010033",
  "linkReferences": {},
  "deployedLinkReferences": {}
}